:020000040800F2
:1000000000000220D1040008210500082105000895
:100010002105000821050008210500080000000056
:1000200000000000000000000000000021050008A2
:1000300021050008000000002105000875020008E5
:1000400021050008210500082105000821050008F8
:100050000000000021050008210500082105000816
:1000600021050008210500082105000821050008D8
:1000700021050008210500082105000821050008C8
:1000800021050008210500082105000821050008B8
:1000900021050008210500082105000821050008A8
:1000A0002105000821050008210500082105000898
:1000B0002105000821050008210500082105000888
:1000C0002105000821050008210500082105000878
:1000D0002105000821050008210500082105000868
:1000E0002105000821050008210500082105000858
:1000F0002105000821050008210500082105000848
:100100002105000821050008210500082105000837
:100110002105000821050008210500082105000827
:100120002105000821050008210500082105000817
:100130002105000821050008210500082105000807
:1001400021050008210500082105000821050008F7
:1001500021050008210500082105000821050008E7
:1001600021050008210500082105000821050008D7
:1001700021050008210500082105000821050008C7
:100180002105000821050008000000000000000013
:10019000000000000000000000000000000000005F
:0801A0002105000821050008FB
:1001A80010B5054C237833B9044B13B10448AFF3A9
:1001B80000800123237010BD000000200000000013
:1001C8006C05000808B5034B1BB103490348AFF39E
:1001D800008008BD00000000040000206C05000835
:1001E80080B483B000AF03463960FB7197F90730DC
:1001F800002B0ADB3B68DAB20C4997F90730120189
:10020800D2B20B4483F800230AE03B68DAB208490B
:10021800FB7903F00F03043B1201D2B20B441A76A8
:1002280000BF0C37BD4680BC704700BF00E100E04E
:1002380000ED00E080B483B000AF78607B68094AC5
:10024800A2FB0323DB09084A013B5360064B00224B
:100258009A60054B07221A6000BF0C37BD4680BC68
:10026800704700BFD34D621010E000E080B500AFCA
:100278002B4B1B6801332A4A13602A4B1B68013336
:10028800284A1360284B1B680133274A1360244B04
:100298001B68B3F57A7F23D3244B1B78DBB2022B80
:1002A80014D0022B19DC002B02D0012B07D014E04C
:1002B8001F4B5B691E4A83F4805353610DE01C4B4E
:1002C8005B691B4A83F40053536106E0184B5B6972
:1002D800174A83F48043536100BF114B00221A6010
:1002E800114B1B68B3F5FA5F18D3104B1B78DBB2C0
:1002F8005A1C104B83FB0231D317C91A0B465B00FB
:100308000B44D11ACAB2094B1A70084B1B78DBB2DE
:10031800184600F011F8044B00221A6000BF80BD97
:100328001C000020280000202000002024000020BD
:10033800000C02405655555580B483B000AF0346B3
:10034800FB714E4B00229A604C4B00229A604B4B3B
:100358001B684A4A23F480331360484B1B68474A9A
:1003680023F001031360454B1B68444A23F0807354
:100378001360434B5B69424A23F480535361404BFB
:100388005B693F4A23F4005353613D4B5B693C4A28
:1003980023F480435361FB79022B36D0022B68DCAF
:1003A800002B02D0012B16D063E0344B1B68334A74
:1003B80043F00103136000BF304B1B6803F00203D6
:1003C800002BF9D02D4B2D4A9B6893602B4B2B4A61
:1003D8009B6893604DE0294B1B68284A43F480339F
:1003E800136000BF254B1B6803F40033002BF9D0C2
:1003F800224B9B68214A43F0800393601F4B9B6804
:100408001E4A43F00103936033E01C4B5A681B49B2
:100418001C4B13434B60194B1B68184A43F4803339
:10042800136000BF154B1B6803F40033002BF9D091
:10043800124B1B68114A43F08073136000BF0F4BC7
:100448001B6803F00073002BF9D00F4B1B680E4A92
:1004580043F005031360094B9B68084A43F0020305
:10046800936000BF054B9B6803F00C03082BF9D180
:1004780000BF00BF0C37BD4680BC70470038024043
:10048800000C024008544000003C024080B500AF18
:100498000A4B1B6B094A43F008031363084B1B689C
:1004A800074A43F0A85313600648FFF7C3FE00212C
:1004B8004FF0FF30FFF794FE00BFFDE70038024021
:1004C800000C02400024F4000D488546AFF300807C
:1004D8000C480D490D4A002302E0D458C450043397
:1004E800C4188C42F9D30A4A0A4C002301E013606D
:1004F8000432A242FBD300F011F8FFF7C7FFFEE772
:100508000000022000000020000000208C050008E8
:10051800000000202C000020FEE7000070B50D4D03
:100528000D4C641BA4100026A64209D10B4D0C4C9F
:1005380000F018F8641BA4100026A64205D170BD6F
:1005480055F8043B98470136EEE755F8043B9847C1
:100558000136F2E7840500088405000884050008D0
:1005680088050008F8B500BFF8BC08BC9E4670476F
:0C057800F8B500BFF8BC08BC9E467047F8
:04058400CD0100089D
:04058800A9010008BD
:04000005080004D11A
:00000001FF
